{
  "_format": "hh-sol-artifact-1",
  "contractName": "CharityDonation",
  "sourceName": "contracts/CharityDonation.sol",
  "abi": [
    {
      "inputs": [],
      "name": "donate",
      "outputs": [],
      "stateMutability": "payable",
      "type": "function"
    },
    {
      "inputs": [
        {
          "internalType": "uint256",
          "name": "",
          "type": "uint256"
        }
      ],
      "name": "donations",
      "outputs": [
        {
          "internalType": "address",
          "name": "donor",
          "type": "address"
        },
        {
          "internalType": "uint256",
          "name": "amount",
          "type": "uint256"
        },
        {
          "internalType": "uint256",
          "name": "timestamp",
          "type": "uint256"
        }
      ],
      "stateMutability": "view",
      "type": "function"
    },
    {
      "inputs": [
        {
          "internalType": "uint256",
          "name": "index",
          "type": "uint256"
        }
      ],
      "name": "getDonation",
      "outputs": [
        {
          "internalType": "address",
          "name": "",
          "type": "address"
        },
        {
          "internalType": "uint256",
          "name": "",
          "type": "uint256"
        },
        {
          "internalType": "uint256",
          "name": "",
          "type": "uint256"
        }
      ],
      "stateMutability": "view",
      "type": "function"
    },
    {
      "inputs": [],
      "name": "getDonationsCount",
      "outputs": [
        {
          "internalType": "uint256",
          "name": "",
          "type": "uint256"
        }
      ],
      "stateMutability": "view",
      "type": "function"
    }
  ],
  "bytecode": "0x608060405234801561001057600080fd5b506105b1806100206000396000f3fe60806040526004361061003f5760003560e01c8063c93527d814610044578063ed88c68e1461006f578063ef07a81f14610079578063f8626af8146100b8575b600080fd5b34801561005057600080fd5b506100596100f7565b60405161006691906104fc565b60405180910390f35b610077610103565b005b34801561008557600080fd5b506100a0600480360381019061009b9190610398565b610201565b6040516100af93929190610485565b60405180910390f35b3480156100c457600080fd5b506100df60048036038101906100da9190610398565b610329565b6040516100ee93929190610485565b60405180910390f35b60008080549050905090565b60003411610146576040517f08c379a000000000000000000000000000000000000000000000000000000000815260040161013d906104bc565b60405180910390fd5b600060405180606001604052803373ffffffffffffffffffffffffffffffffffffffff16815260200134815260200142815250908060018154018082558091505060019003906000526020600020906003020160009091909190915060008201518160000160006101000a81548173ffffffffffffffffffffffffffffffffffffffff021916908373ffffffffffffffffffffffffffffffffffffffff16021790555060208201518160010155604082015181600201555050565b60008060008080549050841061024c576040517f08c379a0000000000000000000000000000000000000000000000000000000008152600401610243906104dc565b60405180910390fd5b6000808581548110610287577f4e487b7100000000000000000000000000000000000000000000000000000000600052603260045260246000fd5b90600052602060002090600302016040518060600160405290816000820160009054906101000a900473ffffffffffffffffffffffffffffffffffffffff1673ffffffffffffffffffffffffffffffffffffffff1673ffffffffffffffffffffffffffffffffffffffff168152602001600182015481526020016002820154815250509050806000015181602001518260400151935093509350509193909250565b6000818154811061033957600080fd5b90600052602060002090600302016000915090508060000160009054906101000a900473ffffffffffffffffffffffffffffffffffffffff16908060010154908060020154905083565b60008135905061039281610564565b92915050565b6000602082840312156103aa57600080fd5b60006103b884828501610383565b91505092915050565b6103ca81610528565b82525050565b60006103dd602683610517565b91507f446f6e6174696f6e20616d6f756e74206d75737420626520677265617465722060008301527f7468616e203000000000000000000000000000000000000000000000000000006020830152604082019050919050565b6000610443601683610517565b91507f496e76616c696420646f6e6174696f6e20696e646578000000000000000000006000830152602082019050919050565b61047f8161055a565b82525050565b600060608201905061049a60008301866103c1565b6104a76020830185610476565b6104b46040830184610476565b949350505050565b600060208201905081810360008301526104d5816103d0565b9050919050565b600060208201905081810360008301526104f581610436565b9050919050565b60006020820190506105116000830184610476565b92915050565b600082825260208201905092915050565b60006105338261053a565b9050919050565b600073ffffffffffffffffffffffffffffffffffffffff82169050919050565b6000819050919050565b61056d8161055a565b811461057857600080fd5b5056fea2646970667358221220eefa5287eac91f943fbfb7ee084ea68f61606b1a555b83c62d608dbc6a48286c64736f6c63430008000033",
  "linkReferences": {},
  "deployedLinkReferences": {}
}